:020000021000EC
:1080000000400020CDA3010009A401000BA4010041
:108010000000000000000000000000000000000060
:108020000000000000000000000000000DA401009E
:1080300000000000000000000FA4010011A40100D6
:1080400013A4010013A401009DA7010013A40100C3
:1080500013A401000000000013A4010013A40100F8
:1080600013A4010095A9010013A4010013A40100A9
:1080700013A4010013A4010013A4010013A4010020
:1080800013A4010013A4010013A4010013A4010010
:1080900013A4010013A4010013A4010013A4010000
:1080A00013A4010013A40100000000000000000060
:1080B00000000000000000000000000000000000C0
:1080C00010B5064C2378002B07D1054B002B02D0AE
:1080D000044800E000BF0123237010BD20210020D0
:1080E0000000000034FE0100084B10B5002B03D047
:1080F0000749084800E000BF07480368002B00D18B
:1081000010BD064B002BFBD09847F9E7000000009C
:108110002421002034FE0100142100200000000072
:10812000164B002B00D1144B9D46402292029A1A06
:10813000924600218B460F461348144A121A07F044
:1081400090F80F4B002B00D098470E4B002B00D01F
:1081500098470020002104000D000D48002802D09F
:108160000C4800E000BF04F01BFE2000290006F0D0
:10817000DAFC04F06DFBC04600000800004000205F
:1081800000000000000000001821002090240020C2
:10819000000000000000000010B50400054B036063
:1081A000054B40300360054B436002F0B5F82000FA
:1081B00010BDC046D0F60100E8F601001CF7010032
:1081C00008B4024B9C46403808BC604799810100C6
:1081D00008B4024B9C46443808BC604799810100B2
:1081E000F0B58DB009AD1E49280000F095FB1D4E7D
:1081F00078222900300001F0F7F8280006F00AF88C
:108200000023FF221C000392049305930693079218
:10821000089309936B60AA600027134B1B789F4259
:108220000FDA06AB03AAE358A258285DDBB2B9B255
:108230000090D2B20D4805F098FF0D4B0137187031
:10824000EBE70A4800F01EFAFE200434800502F035
:10825000B1F80C2CE0D1300006F0C4FA0DB0F0BD3E
:108260008AFA010090210020F520002054210020EE
:108270007724002070B50A4E0121300006F0FAF88C
:1082800001210500300006F008F90121040030004A
:1082900006F016F96D43644340432C19201870BD55
:1082A0006022002013B5114806F01FF900281BD0EA
:1082B0000F4B1A680132082A00DD00221A60196883
:1082C00001A805F0C3FFC8220A4C520001A92000F2
:1082D00001F056F801A805F09DFFFE20800502F090
:1082E00069F8200006F07EFA13BDC0466821002020
:1082F000AC22002090210020F0B5774C89B02000FE
:1083000000F064FB6421200006F0AFF8734B744C5E
:108310001A78744B2000197800F07EF9200005F0DF
:108320000EFFFFF75DFFFFF7BDFFFFF7A3FF6E4BEB
:10833000060018606D4B6E4F1B683C689B000493F1
:10834000049A6C4BD358039303F0A4FB039902F0F7
:108350001DFE694A002803D0002C01DD053C05E024
:108360000A2311684B439C4201DA01343C600499B2
:10837000624B634D5B586946049301230B76396861
:1083800013682C68994202DC00236A4613762000A9
:1083900003F080FB0499012702F0EEFD002800D1D4
:1083A000071C069B1F40FB0705D5A64203DD554B66
:1083B0001B681C1904E0A64203DA524B1B68E41A3E
:1083C0002C60286803F066FB039903F0BBF903995E
:1083D000041C049803F0B6F9FE26011C201C02F0D0
:1083E000D3FEB605311C051C02F0DAFD464C002810
:1083F00002D02660002459E00026281C311C02F01F
:10840000BBFD0028F5D12560F4E740494048625C97
:1084100023569A18D2B26254002A4CD0632A50D8FC
:10842000394B186804F082F900223A4B06000F001D
:1084300003F0CCFE04F044F9374BC5B21D70334B4A
:10844000185D03F06FFB04F071F90022334B03F069
:10845000A7FB002204900591304B3000390003F057
:10846000B5FE049A059B03F0B1FE04F029F96A46B3
:10847000C3B20393127B2A4B30001A7039000022DA
:10848000284B03F0A3FE049A059B03F09FFE04F023
:1084900017F9254BC0B21870A1B20090039B2A00B7
:1084A0000F4805F062FE214B013418700B4B1B780E
:1084B0009C42AADB0CE0002BB0DA5B422354002381
:1084C00004E0002BACDD5B42035564230B55A7E7AA
:1084D000034800F0D7F826E760220020F5200020AE
:1084E00054210020F420002064210020AC22002030
:1084F000602100202C200020502000200820002097
:108500005C21002004200020B0220020DC2000207C
:10851000C420002000E06F40762400200000594075
:108520007524002000003E407424002077240020A1
:1085300010B50400FFF730FE200000F0CBF920005A
:1085400010BD08B4024B9C46403808BC6047C0468A
:108550003185010008B4024B9C46443808BC604792
:10856000318501001F4B73B5186803F071FA1E4C7A
:108570001E4B002218601E21200006F038F91C4D09
:10858000042321003A22280000F0A4FA194C1A49C9
:108590002200280006F0F4FD184D194A0621280093
:1085A00000F074FD22001749280006F0E9FD0026BE
:1085B0000123154D1A0000961121280000F096FCA9
:1085C00022001249280006F0DBFD114D330028007F
:1085D0001922182101F048FE280022000D4906F05A
:1085E000CFFD73BD2C2000203C2100205C21002009
:1085F0006022002000200020B58901009021002089
:10860000C0F501004590010068210020F58D0100B2
:108610000822002099810100F0B5184B85B01600A2
:1086200001AA0F00040023CB23C2032528007043B6
:1086300004F040FC6A46BB000432D358A0222370E9
:108640003B00C133FF33D2059B00606066809D50C4
:108650000123BB400A49535000231900B3420BDAEF
:108660002A005A4360680133815460688018417061
:10867000606882189170F1E705B0F0BDD8F501008F
:108680000C0500000123F0B502787E499340A0223A
:10869000D205060085B0535032200138C046C0468E
:1086A000C046C046C046C046C046C046C046C0469A
:1086B000C046C046F1D1EFF3108C72B670880290BC
:1086C00000200190A120C000029C019DA54200DB7A
:1086D000DAE003246C4377683C19E71C03977F2595
:1086E00027781350AF430AD0C046C046C046C046A4
:1086F000C046C046C046C046C046535009E0C046CA
:108700005350C046C046C046C046C046C046C0469C
:10871000C0464025277813502F420AD0C046C04695
:10872000C046C046C046C046C046C046C04653507C
:1087300009E0C0465350C046C046C046C046C04689
:10874000C046C046C04627781350BD060AD5C0466D
:10875000C046C046C046C046C046C046C046C046E9
:10876000535009E0C0465350C046C046C046C046BC
:10877000C046C046C046C04627781350FD060AD5FD
:10878000C046C046C046C046C046C046C046C046B9
:10879000C046535009E0C0465350C046C046C0468C
:1087A000C046C046C046C046C046277813503D0765
:1087B0000AD5C046C046C046C046C046C046C046B0
:1087C000C046C046535009E0C0465350C046C0465C
:1087D000C046C046C046C046C046C0462778135073
:1087E0007D070AD5C046C046C046C046C046C04602
:1087F000C046C046C046535009E0C0465350C0462C
:10880000C046C046C046C046C046C046C04627789F
:108810001350BD070AD5C046C046C046C046C04634
:10882000C046C046C046C046535009E0C0465350FB
:10883000C046C046C046C046C046C046C046C04608
:1088400027781350FD070AD5C046C046C046C0462B
:10885000C046C046C046C046C046535009E0C04668
:108860005350C046C046C046C046C046C046C0463B
:10887000C046039D0134AC4200D030E7019C013476
:10888000019421E70C0500008CF3108805B0F0BDC1
:1088900070B5050000240D4B1B789C4209DA0C4989
:1088A000E300C918280005F074FC00280AD101343F
:1088B000F1E7280004F0FEFA041E04D1142000F0B1
:1088C000A9FE00E00400200070BDC046782400200E
:1088D000B422002070B5002818D00D4B0D491C782B
:1088E0000023A34210DADA005558A8420AD98A18A0
:1088F0005268904206D28023043802681B06134354
:10890000036003E00133ECE704F0DEFA70BDC0461B
:1089100078240020B422002010B50400002902D0E1
:108920000B78002B02D1034B236001E005F079FCAA
:10893000200010BDE4F50100014B03607047C04604
:10894000E4F5010010B50548054C206005F0DBFC9E
:10895000044A0549200006F013FC10BDE4F50100AF
:10896000C42200200020002015E2010010B5054CB3
:108970000121200005F0BBFC034A0449200006F059
:10898000FFFB10BDC822002000200020AFE2010044
:108990000388074A10B50120934208D0834202D0D1
:1089A0000020DB0703D41E2000F034FE002010BDA1
:1089B000FFFF000010B50400034B0833036000F014
:1089C000A9FF200010BDC046ECF50100FA2370B5E8
:1089D0002A4A41899B0059431300383304001E0082
:1089E000083A1D6818008D420BD2254B227B1D1DB5
:1089F000082A0BD8042A09D89D1C022A06D81D0073
:108A000004E0083B06009342EBD1EEE7FA21306820
:108A1000890002F029F960812B78002223732A2132
:108A2000200005F095FC002801D0164824E0102213
:108A30002B21200005F08CFC0028F6D101222D21ED
:108A4000200005F085FC0028EFD101222E21200016
:108A500005F07EFC0028E8D16A780E21200005F0A0
:108A600077FC0028E1D1012233792A211A43200022
:108A700005F06EFC0028D8D170BDC04604F6010098
:108A80008FFA01000EFCFFFF7FB515000F226A442C
:108A900004001E001170002D15D0002B13DD0123E2
:108AA00001890093006B00F013FD002801D00748F6
:108AB0000AE00090218933002A00206B00F0BEFC00
:108AC000002801D0F3E7024804B070BD0EFCFFFFA0
:108AD00017FCFFFFF7B5060000250193214B143664
:108AE00008330400036085808571C5810582458255
:108AF0000F00009229001822300006F0B2FB1C2162
:108B0000300006F062F96B469B880222A3806B4618
:108B10001B88210023811423638123003833A5712E
:108B2000227327633E311D705D706587A5870B78C2
:108B300020009343F132134022000B70230048328F
:108B4000157055800135221DD5870833A21DD587A4
:108B5000DD87FFF73BFF002802D1A3791D43A571F4
:108B60002000FEBDECF5010030B50425837987B007
:108B700004002B4204D100F0BFFEA3792B43A37164
:108B8000A36AA2691B6800251A4228D106236A46F7
:108B900001212000FFF778FF002801D0114D1EE0D1
:108BA0006B460222207B9A5669464243D2001B79CB
:108BB000228202225BB243430978DB0049B241437F
:108BC0006382A379C9009343E181A371200005F07A
:108BD000CDFB0123A1881A0002A805F08EFE280013
:108BE00007B030BD0EFCFFFFF8B50400FFF7BCFF77
:108BF0000E22A35E7C4F5B42BB4205DA23003E336C
:108C00001B789B0700D5C6E02000FFF7ADFF0E22C2
:108C1000A35EC8225B4200255200934205DD23007B
:108C20003E331B789B0700D4B5E02000FFF79CFF84
:108C30001022A35E5B42BB4205DA23003E331B7861
:108C40005B0700D5B5E02000FFF78EFF1022A35E82
:108C5000C8225B425200934205DD23003E331B785D
:108C60005B0700D4A5E026002000FFF77DFF12225D
:108C7000A35E4836BB4205DA23003E331B781B0750
:108C800000D5A3E02000FFF76FFF1223E25EC823A8
:108C90005B009A4205DD23003E331B781B0700D49E
:108CA00094E0002D19D03378032B16D80133DBB2B2
:108CB0003370012B04D1230000224A331A800CE0C8
:108CC000042B0AD1220001213E3213784A340B438F
:108CD0001370002323800B3384E03278002A1AD0EB
:108CE0002100270001254A310B883E3701339BB212
:108CF0000B803878AC46054008D01D2B0BD9634655
:108D00009843002338700B80337004E0092B02D99C
:108D1000013A0D803270200005F093FB334A07239F
:108D200090425FDD2000FFF71FFF0E23E25E304E12
:108D300052420323B24255DBC8252000FFF714FF3F
:108D40000E23E25EAD0052420423AA424ADC200018
:108D5000FFF70AFF1023E25E02235242B24241DBD8
:108D60002000FFF701FF1023E25E01235242AA42D6
:108D700038DC2000FFF7F8FE1223E25E0523B24242
:108D800030DB2000FFF7F0FE1223E25E0623AA424A
:108D900028DC002326E00125210028003E310B7845
:108DA0005A08904302000220AA40834313430B70E9
:108DB0003BE70125210028003E310B789A089043BB
:108DC00082000420834313430B704CE721000122EF
:108DD0003E310B78D80882430820D20083431343E6
:108DE0000B7060E71800F8BD70FEFFFFFF70020017
:108DF000E0FCFFFF10B50400034B0833036000F0F4
:108E000035FF200010BDC04644F6010070B5C369AF
:108E1000C2681B688AB00400451D1A4250D0EB7F1F
:108E2000002B01D0013BEB77EB7F082B0DD9012202
:108E3000A379134209D11343A371A188130006A893
:108E400005F05BFD00F0DCFE2062EB7F012B26D8F5
:108E50000123A2791A4222D00025A188A5710222FD
:108E600002A805F04AFDA31DDE7F012E17D100F0F8
:108E7000C7FE2B00226A801A994100900191019B44
:108E8000A188AB4203D1174B009A9A4202D9012321
:108E9000042201E03300032206A805F02EFD03237F
:108EA000A2791340012B1AD100F0AAFE0023226AF6
:108EB000801A9941994208D10B4B984205D80EE08F
:108EC000EB7F0B2BB0D80133ADE70222A379A18849
:108ED0001343A3710332012306A805F00EFD0AB067
:108EE00070BDC046E7030000DB050000F0B50700D9
:108EF00000250E0085B002930AAB1B780837039358
:108F0000104B0400083303600192858085712900AD
:108F10001822380006F0A5F9039A3100380005F050
:108F200059FF6B466A469B88127AA380A31DE6719F
:108F3000DA77631D25622000DD7700F079FE2000DE
:108F400005B0F0BD44F60100F7B50400012200258C
:108F5000A37A29009C460D339A40276F0092FB6844
:108F60000193019B9D4231DABB687A696B4363448C
:108F70005B00E67AD3181A785878E379012E04D189
:108F80005E1E361A100032000EE0022E05D15E1E63
:108F9000B21A267A013E301A06E0032E04D1267A50
:108FA000013EB61A020030005B004343606F821836
:108FB000D3189B79627A934200DD1300627B1A42D8
:108FC00002D00123AB4019430135CAE71123C9433D
:108FD000FB56606C994023691940009B194306F0C9
:108FE00045F8A37B072B18D8627B581C520062738C
:108FF0000A499A00A073022B03D8885805F069FF2C
:10900000A4E7074B2000236300236363054B8958C3
:10901000E4622364143005F00EFEF7BD74F601001F
:10902000498F0100F3E4010010B50400044B036014
:1090300005F0F9FD200001F0A5F9200010BDC046A3
:1090400080F7010010B504000E4B0833036000F0F8
:109050000DFE2000743005F060FC2000603005F04B
:109060005CFC2000583005F0D5F82000503005F0A9
:10907000D1F82000044B14306361FFF7D5FF2000C6
:1090800010BDC0465CF6010094F70100F8B500255C
:109090000400324B8580083303608571143016005C
:1090A0000F0001F059F920002D4BE5626361256442
:1090B0005030FFF741FC20005830FFF73DFC200006
:1090C000603000F0F5FD20000423F25E336826676F
:1090D000590009B2743005F036FC3378226FE37121
:1090E0007368012623721023E572A572A78025619B
:1090F000D356916859188B4204DA300098400133F6
:109100000543F8E711230120D356D16859188B4243
:1091100006DA02009A402669013332432261F6E7FB
:109120001420FFF7B5FB226900212A430123060022
:1091300001F0A8FAFF2262722200002301254832C2
:1091400066646573A373237320001370A36600F035
:109150006FFDA37920002B43A371F8BD5CF60100DD
:1091600094F70100F0B5437A85B00400002B68D075
:10917000837A00251A009C46012319000D32914084
:1091800001912900076F0393FA680292029BAB4298
:109190002CDDBB687A696B4363445B00E67AD318C5
:1091A0001A785878E379012E04D15E1E361A100021
:1091B00032000EE0022E05D15E1EB21A267A013E62
:1091C000301A06E0032E04D1267A013EB61A0200B8
:1091D00030005B004343606F8218D3189B79002BEB
:1091E00002D0039BAB4019430135CFE71123C9439C
:1091F000FB56606C994023691940019B194305F0A7
:1092000035FF667AB31EDBB2FC2B14D800F0BEFC2F
:109210000D4B0500236300230C4863630C4BFF21B7
:10922000E4622364704301F0A9FD2900414320005A
:10923000143005F000FD637A012B02D8200005F000
:1092400062F905B0F0BDC04607E50100B6030000B5
:10925000F3E401001FB5012381881A00684605F078
:109260004CFB012303491A00684605F046FB05B094
:1092700000BDC046FE03000010B548300378002B47
:1092800006D00378012B03D00121024805F0FAFA39
:1092900010BDC046FF03000010B5012104000620E8
:1092A00005F0F0FA064B984209D1230048331A78AA
:1092B000002A04D01B78012B01D020BFF5E710BD98
:1092C00016FCFFFF70B50500141E09DB06004836CA
:1092D0003378002B06D03378012B03D00B4813E0F2
:1092E0000B4811E0002328001A00743000F03AFD0A
:1092F0000020844207D02B004A331C8007234C35C2
:109300002880337000E0200070BDC04612FCFFFFD3
:1093100017FCFFFFF8B517000A68050052880B001C
:10932000012A09D10021180004F0B4FF0022010035
:109330002800FFF7C7FF1EE0002F09DD06004836B2
:109340003278002A06D03278012A03D00A4812E087
:109350000A4810E02A00002428005C32190014801A
:10936000583004F088FF2B004A331F80032320006D
:109370004C352C803370F8BD12FCFFFF17FCFFFF4B
:10938000F7B505000E00171E26DDFFF775FF2B0051
:1093900048331C78E4B2002C20D133685B88012B61
:1093A00009D12100300004F075FF220001002800DF
:1093B000FFF788FF13E0310001A804F054FF3A00E2
:1093C00001A92800FFF7A6FF01A804F023FF280049
:1093D000FFF762FF200002E0014800E00148FEBD07
:1093E00017FCFFFF11FCFFFFF8B50400171E09DD95
:1093F000060048363378002B06D03378012B03D093
:109400000C4816E00C4814E02200E3795632013B88
:10941000137023000025200054331D80503004F0C9
:109420002AFF23004A331F80022328004C34258062
:109430003370F8BD12FCFFFF17FCFFFFF0B51F00F3
:1094400085B00AAB1B780400039300933B000D002A
:10945000160005F01FFB002832D0237D082B2DD8E5
:10946000236800221900FC318A62A021C9005A50E9
:10947000154905205A500138C046C046C046C0466E
:10948000C046C046C046C046C046C046C046C046AC
:10949000F1D1236801325A50A0220521D2009950FF
:1094A00001F016FA039B3200009329003B002000D4
:1094B00005F0F0FA237D01332375CCE7034800E083
:1094C000207505B0F0BDC046FC0F00000EFCFFFF8C
:1094D000F0B51F0085B00AAB1B780400039300931E
:1094E0003B000D00160005F0BDFA002832D0237DA8
:1094F000082B2DD8236800221900FC318A62A02194
:10950000C9005A50154905205A500138C046C04676
:10951000C046C046C046C046C046C046C046C0461B
:10952000C046C046F1D1236801325A50A02205211D
:10953000D200995001F0CCF9039B3200009329002E
:109540003B00200005F08EFA237D01332375CCE724
:10955000034800E0207505B0F0BDC046FC0F0000D8
:109560000EFCFFFF10B5041E0DD005F03DFF2300DB
:1095700001382018834208D21A780178013819700E
:1095800042700133F6E7024800E0002010BDC046FB
:1095900017FCFFFFF0B585B001900C1E28D0002706
:1095A000C217161A56407D1C631902933000013B06
:1095B0000A21039301F0C8FCCB17C9185940039B3B
:1095C0003031197030000A2101F0D8FB061E01D09D
:1095D0002F00E8E7019B002B03DA2D23029ABD1C24
:1095E0001370002620006655FFF7BCFF300000E036
:1095F000014805B0F0BDC04617FCFFFFBFF34F8F19
:10960000024A034BDA60BFF34F8FFEE70400FA050E
:1096100000ED00E0F0B595B01822002106000EA87C
:1096200005F01FFE13210EA805F0CFFB03210EA8A5
:1096300005F061FC01224A4B00921B68002B01D00F
:10964000DBB200930123474A002109A801F01AF870
:10965000454B9E4200D9002672B6444B1022002191
:1096600005A81D6805F0FDFD414B64213000059300
:10967000052401F083FB60435030281806900A212E
:10968000300001F07BFB0A2101F05EFC61435031A8
:109690006918079130000A2101F056FC4C43210063
:1096A00050316C18802608940024B601009B002BD2
:1096B0003CD004AD0027032C02D180260024B60143
:1096C0006B682C4A029363000133D3180022019285
:1096D0001021581E00780141039119788C4660468C
:1096E0000299095C0398014204D00120904001993D
:1096F0000143019101320633092AE9D1019B2A680D
:10970000D9431D4B09011940029B934203D1312FCC
:1097100001DC002100E0314309A805F0A7FCFA2391
:10972000139A0F99DB001068014201D1FFF766FF21
:10973000013B002BF7D1FA23013401377600E4B264
:109740005B009F42B7D1043508ABAB42B2D1044BAA
:109750001B68002BAAD0009B013BDBB20093A5E75E
:10976000CC220020F0FF0000E7030000542000207E
:10977000CBFA010095FA0100F01F0000F0B585B0AA
:109780001F000AAB1B880600029115000393002FEF
:109790001BD02820FFF77CF86B4604001989039B37
:1097A000AAB200933B0005F07CF8336821005B68A7
:1097B0003000984700280BD0002C08D0200005F07E
:1097C00087F82000FFF786F801E0024800E0024831
:1097D00005B0F0BD17FCFFFF16FCFFFFF0B504005D
:1097E00093B00793230C0293294B04901C68294BD8
:1097F00005911E68069285B20027002E46D0002CE7
:1098000030D0636D24480393A36C9AB21B0C99B2B9
:10981000854216D12148824213D1002B04D0029BED
:10982000994201D0039CEAE7002F01D00127F9E714
:10983000200004F0F7FF1A49200004F0E0FF013790
:10984000F0E7002A01D09542ECD1002B02D0029B18
:109850009942E7D1200004F0E5FF1149200004F00F
:10986000CEFFDFE70F4BEB18012B0FD91023029A25
:10987000009329000C4B08A805F013F8336808A9D9
:109880009B683000984708A805F022F813B0F0BD97
:10989000F0220020FC220020FE030000FF03000055
:1098A000F822002002FCFFFFDD97010010B572B620
:1098B0000B4B1C68002C03D0200004F0B3FF08E021
:1098C00062B65C20FEF7E4FF5C220021040005F094
:1098D000C8FC0023E364034B2000E36310BDC046D3
:1098E000D022002000400020024B187801231840AD
:1098F0007047C04679240020002310B504499C001D
:109900006258002A01D00133F9E76050100010BD01
:10991000D8220020002310B5044A99008C588442B4
:1099200001D00133F9E70020885010BDD822002073
:1099300010B50024074BE058002802D003685B688C
:1099400098470434182CF5D1034B1B68002B00D129
:1099500020BF10BDD8220020F8220020F8B5FFF764
:10996000C3FF002855D02B4E34683500E36CDA076E
:1099700017D502252B43E3640423274F3868C26CB4
:109980001343C364636BC36304F063FF3868416CC3
:1099900000F0B1FA3068C36C2B423AD000F0E5FA1F
:1099A00037E01E4F1E4E3A68002A01D1326808E0A7
:1099B000216DB94205D1616D002900D111002960E6
:1099C00000E02A602A6831688A4208D11B0706D560
:1099D0002C60FFF7ADFF3B68002BFAD02B602968A5
:1099E0008C4216D03368994204D10E4B4B630E4B18
:1099F0008B6305E09C4203D100224B6C100006E013
:109A0000200004F026FF20002968626C4B6C00F0F7
:109A100031FAF8BDD4220020F4220020F8220020E0
:109A200000230020FC3F002097E80100F0B51E4B0A
:109A300085B01C681D4B06001A680F000393002AAE
:109A400003D0FFF751FF002801D119482AE0E36C49
:109A5000DB070ED5FFF72AFF164B051E186008D04E
:109A600004F0E0FE1449280004F0C9FE2C00FFF7C2
:109A700075FF3B043343A364200004F0D3FE2000B1
:109A80000E4904F0BCFE0E4B0020F318012B09D93F
:109A9000C023039800933A000A4B31000068FFF797
:109AA0006DFE002005B0F0BDD4220020FC22002075
:109AB00016FCFFFFF4220020F8220020F0220020F4
:109AC00002FCFFFFDD970100020010B5014B12CB35
:109AD00012C210BD04230020034A044B12681A600E
:109AE0007E225A607047C046542000200423002084
:109AF00070B5051E15DD0C4B0C4E1A681C00002AB3
:109B000002D0306805F08FF8FA2125600024306813
:109B1000074B89008361C462694305F08CF820001B
:109B200000E0044870BDC0463C2300200C23002008
:109B3000DD9B010017FCFFFFF8B5114F06003D68E3
:109B4000002D0AD13020FEF7A3FE040000F004FC33
:109B50000C4BA5612360E5623C600B4D2B68002B2C
:109B600009D11020FEF794FE040005F0B1F82000A2
:109B70002C6005F087F83000FFF7BAFFF8BDC0464B
:109B80000C23002080F7010038230020014B1868C7
:109B90007047C0463C23002070B50D4C2368002B55
:109BA00003D00C4B1B68002B02D10620FFF7C4FF2B
:109BB000206805F07EF802000749C3170D684E685B
:109BC0005219734120680A604B6005F078F870BD47
:109BD000382300200C2300201821002010B5FFF7A7
:109BE000DBFF0024054BE058002802D003681B6807
:109BF00098470434282CF5D110BDC046102300200E
:109C000010B5FFF7C9FFFA22034B92001868596894
:109C1000002301F0D9F910BD1821002010B5FFF77D
:109C2000BBFF024B1868596810BDC04618210020C0
:109C30000B4B10B51B680400002B03D0094B1B68AD
:109C4000002B02D10620FFF777FF0023064A990078
:109C50008858002801D00133F9E78C5010BDC04668
:109C6000382300200C23002010230020002310B5EF
:109C7000044A99008C58844201D00133F9E700204E
:109C8000885010BD10230020084B73B51C680500D8
:109C9000002C0AD00100266808310822684605F029
:109CA000C2FA0CCD31682000884773BD40230020E4
:109CB000014B03607047C04694F60100F0B5070001
:109CC00085B00E001D0000291FDD002B1DD004688B
:109CD000638803938B4200DD0391A3880293934230
:109CE00000DD0292002306340193019B029A934205
:109CF0000DDA29002000039A05F095FA3B68AD19AA
:109D00005B88E418019B0133EEE7024800E0002085
:109D100005B0F0BD17FCFFFFF8B504000D001600FC
:109D20001F00002901DB002A02DA0D4B236016E038
:109D3000100048430630FEF7ABFD206004F0E0FA67
:109D400023685D809E80002F06D03B0032002900F2
:109D50002000FFF7B3FF02E0200004F0EBFDF8BDA8
:109D600094F60100F0B5040087B004A815001E00A9
:109D70000F00FFF7A9FE23685A88954208DA9B88EE
:109D8000B34205DD1F2F03D9059B00939F4201DDE0
:109D900018482DE0052300217B430093049B019389
:109DA000009B019ACB18A03BD35C0022029373184E
:109DB0009C465319276803937888834202DABB884C
:109DC0009C4507DB0132052AF3D101310529E7D192
:109DD00000200DE0634658435319FB181027174124
:109DE0001B1802980740781E87417F429F71E9E760
:109DF00007B0F0BD17FCFFFFF7B5036806009C1D18
:109E00005B880D005A1A0192002918DD002799423B
:109E100002DB04F08FFD14E033689B889F4210DA68
:109E20006119019A200005F0FEF9019B2900E01854
:109E300004F07AFD336801375B88E418ECE70248E8
:109E400000E00020FEBDC04617FCFFFF10B505482E
:109E5000054C206004F057FA044A0549200005F03B
:109E60008FF910BD94F6010044230020002000204B
:109E70001BE90100002815D0006041608260C360CA
:109E8000046145618661C761444604624C46446290
:109E9000544684625C46C462644604636E4646630C
:109EA00074468463002A06D0C46B043C043A2568D7
:109EB0001560B442F9D18C6BA6464E6BB546002BAB
:109EC00006D0CC6B043C043B1D682560B442F9D13C
:109ED0000C6BA446CC6AA3468C6AA2464C6AA14687
:109EE0000C6AA046CF698E694D690C69CB688A6897
:109EF000086849687047006041608260C36004611F
:109F000045618661C761444604624C4644625446DA
:109F100084625C46C462644604636E46466374466B
:109F20008463C46B043C043925680D60B442F9D1E4
:109F3000C76986694569046970470060416082604D
:109F4000C360046145618661C761444604624C4652
:109F50004462544684625C46C462644604636C4650
:109F600044637446846304697047846BA646446BFB
:109F7000A546046BA446C46AA346846AA246446A02
:109F8000A146046AA046C769866945690469C36831
:109F9000826800684168704770B504000D001600C3
:109FA0000021102205F05DF9054B320023612900E4
:109FB000200000F0BFFA034B20001C6070BDC046BB
:109FC000A08601004823002070B5054D04002B68D1
:109FD000834203D0016900F067FA2C6070BDC0466F
:109FE00048230020054B10B51B68002B04D1192213
:109FF0001821034800F076FB10BDC0465424002011
:10A0000084240020084B802108330360002330B5EE
:10A010001C00064A49009D58A84200D19C500433B8
:10A020008B42F8D130BDC0469CF601004C23002085
:10A03000F0B50F0085B02F49050005F0CBF9041EDF
:10A0400002D1FFF7CFFF51E02B49280005F0C2F9FC
:10A05000002803D1FFF7C6FF012447E02749280065
:10A0600005F0B8F90024264BA04206D1FFF7BAFF4D
:10A0700002343BE00134402C0DD0A600F258002AF7
:10A08000F8D10BE0290002A805F01EF802A805F09F
:10A0900067F800280CD10124644227E02B783A2B82
:10A0A000F0D102AA1749280003F030FB029818E00B
:10A0B00002A805F03FF8002803D002A805F044F8F4
:10A0C0000FE002A805F02DF8051EE4D0036802A8F1
:10A0D0009B68019305F018F83A000100019B2800E5
:10A0E00098470028D7D0064B03349851200005B07C
:10A0F000F0BDC046ABFC0100C8FC0100B2FC010091
:10A100004C230020BAFC0100030010B50020022BF4
:10A110000DDD0749033B9B005A585850824204D03A
:10A12000136810005B68984701E00120404210BDB1
:10A130004C23002070B50C001500022810DC0F4BDA
:10A140001B68002B01D1FFF74DFF6619B44205D003
:10A1500021780B4800F054FB0134F7E728000BE0AE
:10A160000338084B8000C058002803D003681B68E0
:10A17000984701E00120404270BDC04654240020B1
:10A18000842400204C23002010B50C0002280BDC96
:10A190000C4B1B68002B01D1FFF724FF0A4804F089
:10A1A0006DFF207001200BE00338084B8000C05881
:10A1B000002803D003689B68984701E001204042D3
:10A1C00010BDC04654240020842400204C230020CD
:10A1D000030010B50120022B0BDD033B054A9B0059
:10A1E0009858002803D00368DB68984701E00120F5
:10A1F000404210BD4C230020030010B50020022B6C
:10A200000BDD033B05489B001858002803D003686A
:10A210001B69984701E00120404210BD4C230020FB
:10A22000074A13681818EFF30881884205D30C22F7
:10A230000120044B40421A6001E010601800704792
:10A24000582000208C24002008B4024B9C46403843
:10A2500008BC60474DEB010008B4024B9C464038F7
:10A2600008BC604755EB010070B504001D0000F00C
:10A2700013F820002900403000F02CF8054B200096
:10A280001A00083222601A005433203222646364B8
:10A2900070BDC046C8F601000C4B70B503600023CA
:10A2A00043608360C3600362436283639623040058
:10A2B0009B01051DC363280000F014FA280022004A
:10A2C000034900F091FA200070BDC0462CF7010050
:10A2D0005DEB01001FB5040000F000FC0B4B0C49C6
:10A2E0001A003C336360002308326361226001A8D6
:10A2F000220003F0E9F9074901A802F0AFFC606110
:10A3000004F01FFC200004B010BDC04634F701006B
:10A31000BAFC0100D0FC0100074B10B51A00040084
:10A3200008323C3302604360406902F0FFFA2000CB
:10A3300000F0E8FB200010BD34F7010010B5040068
:10A34000044B036004F06FFC200000F01BF82000B9
:10A3500010BDC04680F70100084B10B508330360FC
:10A36000002343608360C360040000F017F80449D1
:10A37000206104F046FD200010BDC046A0F701009A
:10A38000EDEC010010B50400034B0833036004F04A
:10A39000BAFC200010BDC046A0F70100004870477D
:10A3A000C8F7010010B5024804F034FD10BDC046E6
:10A3B000C8F7010010B5044901F0B0F801F048FBFE
:10A3C00004F087FD10BDC0460024744908480268A7
:10A3D00003210A4302600749074A084B9B1A03DD21
:10A3E000043BC858D050FBDC05488047054800476F
:10A3F0002405004040FE0100002000201421002020
:10A4000029AB010021810100FEE7FEE7FEE7FEE740
:10A41000FEE7FEE701704B1C0AD001238B4043602E
:10A42000044BC360044B0361044B4361044B8360E2
:10A430007047C046080500500C050050100500503C
:10A44000140500500368074A9950074AFC33196AFB
:10A45000002904D1013A002AF9D1012001E00020AD
:10A46000186270471C050000A186010010B5036842
:10A47000002A03D0802202209200985001221C0062
:10A480001A62084AFC34E068002804D1013A002A24
:10A49000F9D1012005E00020A322E060D2009B5802
:10A4A0000B7010BDA186010010B50B4C02680B4B60
:10A4B000A14204DC0A498160CC2149040AE0094C2C
:10A4C000A14203DC08498160802102E007498160E4
:10A4D000CD21C904D15010BD8FD003002405000048
:10A4E000A08601007F1A060090D00300801A0600A3
:10A4F00070B504001000A025C026C130FF30F60062
:10A50000ED05800046510800C130FF308000465103
:10A51000A1252068ED004251054A81501900200014
:10A52000FFF7C2FFA02305212268DB00D15070BDD8
:10A530000C050000F8B50E001500040000F0C8F985
:10A540002648F2B203780100DBB2012B06D147782E
:10A55000974203D18778E8B2874211D02048EFB202
:10A560000378012B05D14378934202D18078B84219
:10A5700011D00878002806D101230B704A708F7023
:10A580006373184B15E0164B1978002907D1013178
:10A5900019705A709F7002236373134B09E01348BC
:10A5A00004F0EAFB0023FC222360657126719362AC
:10A5B000FFDE19000022FC312360657126718A627A
:10A5C000A021C9005A500A4920005A5001325A505D
:10A5D0002A003100074BFFF78BFFF8BD7A240020DB
:10A5E0007E2400200030004000400040D3FC0100E9
:10A5F000FC0F0000A0860100036800221900FC3156
:10A6000010B58A62A021C9005A5006495A50013239
:10A610005A5005220421825641568368FFF768FF8D
:10A6200010BDC046FC0F0000036800211A00FC3278
:10A6300010B5916001315961074B9168002904D12F
:10A64000013B002BF9D1012004E000240473FFF743
:10A65000D3FF200010BDC046A1860100036810B5DD
:10A660001900FC318A6A0020012A08D1044C1C59C7
:10A6700088625A610238A40701D40120404210BD0B
:10A68000C40400000261064A10B54260054A017325
:10A690008260054A1900026004F0C4FC10BDC04687
:10A6A000040500501005005000070050012310B5AC
:10A6B0000A4ADC00A4588C4207DD013BDB00D318BA
:10A6C0005A680168064BCA5007E00133112BF0D1DC
:10A6D00080210268024B4905D15010BDD0F701001E
:10A6E00024050000F8B50F000121254BB940036097
:10A6F000A023244CDB0516001A5905000A438021CB
:10A700001A511A5909060A430121B1401A511A591E
:10A710008A4396211A511A598901520052081A5136
:10A72000FFF7C4FF002204202B6817495A506C39E8
:10A7300058500121996019601900FC31CA60134911
:10A740005A506A6014391F325A5011495F50091823
:10A750005A501E517B1C03D00321380004F052FCD8
:10A76000731C03D00321300004F04CFC0122094B80
:10A7700029001A600848073204F055FDF8BDC046AC
:10A7800000200040140500006C0500001C050000BE
:10A790000C0500005424002084240020C1230E4A0C
:10A7A0009B00D15810B5090603D50C49096A002948
:10A7B00008D1D3585B070DD5084B0021DB68002B6F
:10A7C00001D107E00121064B1868002802D0054B93
:10A7D0001B68984710BDC04600200040FC20004088
:10A7E000582400205C240020034B1960436803496F
:10A7F0009B005A507047C0465C240020582400201B
:10A8000003681A00FC32106A0128FCD10020106293
:10A81000014AC9B2995070471C050000A023F0B549
:10A82000284FDB00FA5885B001920022A024FA508C
:10A83000E023254AE405DB00E658E2507833E1588E
:10A8400001250291E250A1238022DB00D205E250D3
:10A850000420E55004F01FFCA222D200A358039765
:10A860009B0F2B4205D0A35813242B4202D001206A
:10A8700018E01324A0250127ED05013C002C10D081
:10A88000124B0420EF5004F006FCA123DB00EF5034
:10A89000042004F000FCA223DB00EB585B00ECD5A5
:10A8A000E5E72000A023E0220299DB05D2009E50BC
:10A8B00078329950A023039A0199DB00D15005B05A
:10A8C000F0BDC046004000400D0600000C05000031
:10A8D000A023E021134ADB05C90010B55A50783196
:10A8E0005A50114B00221900FC31CA600A62A121A2
:10A8F0001E20C9005A500D4A0D4C9850CC200D4ACC
:10A9000040049850A2200C4AC00014500B4C0C4834
:10A91000145001205050A0220521D2009950FFF779
:10A920007DFF10BD0C060000004000400C0500003B
:10A93000384100402405000000F001401C40004068
:10A940001405000001230E4A10B5936480230D49BD
:10A950009B00CB670C491400086D0C4A002804D0FA
:10A960000020086511680131116009490B60A923B5
:10A97000DB001068E358010C9BB20004184310BDC3
:10A980000090004004E100E0FC90004064240020BE
:10A9900000E100E0F8B50F4C636C002B0FD00027EE
:10A9A0000D4E67643378BB4209D00C4B1D68FFF72E
:10A9B000C9FF2D1ABD4202DC3770FFF7F3FC236D8F
:10A9C000002B06D0064A1368013313600022014BA6
:10A9D0001A65F8BDFC90004083240020602400200C
:10A9E000642400201B4970B50C78002C30D1012064
:10A9F000194B1A4A586054608024E405206050685E
:10AA00000028FCD000220124042515481A500C30DF
:10AA1000DC601D5008381A501248C2251A50C12255
:10AA200080209200000398508020400298500E48E9
:10AA3000AD0046590D4A3240C026360232434251DB
:10AA40008022893D9200FF3D425102601C600C70E3
:10AA500070BDC0468224002000900040FC000040F1
:10AA6000040500004C05000000E100E0FF00FFFFCE
:10AA7000044B10B51B78002B01D1FFF7B3FFFFF794
:10AA800061FF10BD82240020104B70B51B780400BC
:10AA9000002B01D1FFF7A6FF0D4D0E4E2B78002B9A
:10AAA00002D033689C4210D0FFF74CFF201A0A28CE
:10AAB00003DCFFF747FF0A30040001232B70A823B3
:10AAC000054A3460DB00A4B2D45070BD822400205B
:10AAD000832400206024002000900040074B10B524
:10AAE0000022040008C000F091F8054B20001A0075
:10AAF000343308322260636010BDC046A4F6010002
:10AB000058F80100074B10B51A000400083234331E
:10AB100002604360043000F05FF82000FFF772FA33
:10AB2000200010BD58F80100234A10B51378110019
:10AB3000012B19D1214B1B681B0715D1204BE02499
:10AB40001A68F0231000184022420BD11D4A1268E7
:10AB50001A4209D11C4A1D4B1A6080221C4B12025A
:10AB60001A6001E03028F1D00B68DBB2012B0DD167
:10AB7000124A1268120709D1F021114A12680A40DC
:10AB8000402A03D10F4A12680A420DD08022A32323
:10AB90000021D205DB00D1500E4B9960013191604C
:10ABA0009A68002AFCD005E0C1228021D200C905A4
:10ABB0008B50EBE710BDC046E00F00F0E40F00F053
:10ABC000E80F00F0EC0F00F0DFFF07C004050040C5
:10ABD000186C0040FC0000400A4B08330360836897
:10ABE000002B0DD0084A1368984202D143681360C5
:10ABF00006E05A68904201D01300FAE742685A60B2
:10AC00007047C04694F8010068240020064B81601C
:10AC100008330360002302734360994203D0034B5F
:10AC20001A6818604260704794F801006824002098
:10AC3000F8B507000E000B4B1C68002C10D0A5685F
:10AC4000002D0BD032003900280004F0D4FB00287E
:10AC500004D1280004F0C8FB864201D06468ECE708
:10AC60002000F8BD68240020002243088B4274D3E2
:10AC700003098B425FD3030A8B4244D3030B8B42FD
:10AC800028D3030C8B420DD3FF22090212BA030C06
:10AC90008B4202D31212090265D0030B8B4219D3E7
:10ACA00000E0090AC30B8B4201D3CB03C01A524107
:10ACB000830B8B4201D38B03C01A5241430B8B424F
:10ACC00001D34B03C01A5241030B8B4201D30B0338
:10ACD000C01A5241C30A8B4201D3CB02C01A52415F
:10ACE000830A8B4201D38B02C01A5241430A8B4222
:10ACF00001D34B02C01A5241030A8B4201D30B020B
:10AD0000C01A5241CDD2C3098B4201D3CB01C01A24
:10AD1000524183098B4201D38B01C01A524143092E
:10AD20008B4201D34B01C01A524103098B4201D31C
:10AD30000B01C01A5241C3088B4201D3CB00C01A89
:10AD4000524183088B4201D38B00C01A5241430801
:10AD50008B4201D34B00C01A5241411A00D2014626
:10AD6000524110467047FFE701B5002000F0F0F8AF
:10AD700002BDC0460029F7D076E7704703460B4373
:10AD80007FD4002243088B4274D303098B425FD3E4
:10AD9000030A8B4244D3030B8B4228D3030C8B4210
:10ADA0000DD3FF22090212BA030C8B4202D31212F6
:10ADB000090265D0030B8B4219D300E0090AC30BCB
:10ADC0008B4201D3CB03C01A5241830B8B4201D378
:10ADD0008B03C01A5241430B8B4201D34B03C01A61
:10ADE0005241030B8B4201D30B03C01A5241C30AD9
:10ADF0008B4201D3CB02C01A5241830A8B4201D34A
:10AE00008B02C01A5241430A8B4201D34B02C01A33
:10AE10005241030A8B4201D30B02C01A5241CDD2D8
:10AE2000C3098B4201D3CB01C01A524183098B4223
:10AE300001D38B01C01A524143098B4201D34B010C
:10AE4000C01A524103098B4201D30B01C01A52416F
:10AE5000C3088B4201D3CB00C01A524183088B42F6
:10AE600001D38B00C01A524143088B4201D34B00DF
:10AE7000C01A5241411A00D2014652411046704751
:10AE80005DE0CA0F00D04942031000D34042534056
:10AE900000229C4603098B422DD3030A8B4212D316
:10AEA000FC22890112BA030A8B420CD38901921148
:10AEB0008B4208D3890192118B4204D389013AD085
:10AEC000921100E08909C3098B4201D3CB01C01A5A
:10AED000524183098B4201D38B01C01A524143096D
:10AEE0008B4201D34B01C01A524103098B4201D35B
:10AEF0000B01C01A5241C3088B4201D3CB00C01AC8
:10AF0000524183088B4201D38B00C01A5241D9D2DF
:10AF100043088B4201D34B00C01A5241411A00D260
:10AF20000146634652415B10104601D34042002B5C
:10AF300000D54942704763465B1000D3404201B5DB
:10AF4000002000F005F802BD0029F8D016E7704790
:10AF50007047C0468446081C6146FFE71FB500F0F5
:10AF600099FA002801D40021C8421FBD10B500F095
:10AF700025FA4042013010BD10B500F08BFA0028D0
:10AF800001DB002010BD012010BDC04610B500F04F
:10AF900081FA002801DD002010BD012010BDC0464F
:10AFA00010B500F033FA002801DC002010BD0120AC
:10AFB00010BDC04610B500F029FA002801DA0020C3
:10AFC00010BD012010BDC046002B11D1002A0FD1A9
:10AFD000002900D1002802D00021C943081C07B471
:10AFE000024802A14018029003BDC04665FFFFFF62
:10AFF00003B4684601B5029800F006F8019B9E462E
:10B0000002B00CBC7047C046F0B54D4656464446AB
:10B010005F46F0B4924683B004000D0099468B421F
:10B020002FD82CD04946504601F0F2FB29000600EB
:10B03000200001F0EDFB331A9846203B9B4600D5DB
:10B0400074E053465A4693401F005346424693408D
:10B050001E00AF4229D826D05B46A41BBD41002B61
:10B0600000DA79E0002200230092019301235A467E
:10B0700093400193012342469340009319E082429A
:10B08000D0D900220023009201930C9B002B01D009
:10B090001C605D600098019903B03CBC90469946E5
:10B0A000A246AB46F0BDA342D6D9002200230092AF
:10B0B00001934346002BE8D0FB0772081A4346462B
:10B0C0007B080EE0AB4201D1A2420CD8A41A9D41EC
:10B0D000012024196D410021013E24184D41002E0C
:10B0E00006D0AB42EED9013E24196D41002EF8D1B5
:10B0F0005B460098019900196941002B22DB2B0067
:10B100005A46D3402A004446E2401C005B461500E4
:10B11000002B2CDB26009E40330026004746BE4015
:10B120003200801A994100900191AEE742462023F7
:10B130009B1A5246DA40414613004A468A4017009D
:10B140001F4382E7424620239B1A2A0046469A4024
:10B150002300F3401343D5E74246202300219B1AE6
:10B160000022009101920122DA40019282E74246D8
:10B17000202326009B1ADE402F00B44697406646E7
:10B180003B003343C9E7C046F0B5564644465F46E8
:10B190004D46F0B444024600C70F83B08846650AA6
:10B1A000360EBA463DD0FF2E22D00023EC0080257B
:10B1B00099469B46ED0425437F3E43465C0258007A
:10B1C000DB0F640A000E984636D0FF2830D080236B
:10B1D0000021E400DB041C437F38301A019048460C
:10B1E00042460843724E800030587A40130087462A
:10B1F000002D44D108239946063B9B46DDE70122FA
:10B20000FF2000241A406402C305640AD2071C43CD
:10B210001443200003B03CBC90469946A246AB467E
:10B22000F0BD002D20D104239946033B9B46C4E783
:10B23000002C17D1022102E0002C0AD10121321A80
:10B2400001924A4643460A435A48920082587B403C
:10B250009746200001F0BEFA431F76309C404042E2
:10B260000021BAE70321B8E7280001F0B3FA431F31
:10B270009D4000237630464299469B469DE70C232D
:10B280009946093B9B4698E780240022E403FF206F
:10B29000B9E70024C2468B465A465346022AAED02E
:10B2A000032A7DD0012A31D1012200201A40002436
:10B2B000A9E70122101A1B2856DD1A40002000249D
:10B2C000A1E78023DB031D424BD18023DB032B430B
:10B2D0005C02640A3A00FF2095E76D016001854237
:10B2E00030D2019A0024013A01921B220127290041
:10B2F00064006D00002901DBA84201D82D1A3C43EF
:10B30000013A002AF3D16A1E95412C4301987F30FF
:10B310000028CEDD620704D00F222240042A00D08C
:10B320000434220103D5244A019814408030FE28B9
:10B3300000DD64E70122A401640AC0B21A4062E79A
:10B340002C00A9E72D1A1A220124CFE76B02BCD5E5
:10B3500000248023DB031C436402640A4246FF206E
:10B3600051E71C42B3D1F4E721002022C140101A5A
:10B370008440621E94410C43620704D00F22224095
:10B38000042A00D00434620104D5012201201A40AD
:10B39000002438E70122A401640A1A40002032E7A1
:10B3A0008023DB031C436402640A5246FF202AE721
:10B3B000A4F80100E4F80100FFFFFFF7430270B5B5
:10B3C00042004C005D0AC30F4802120E460A240ECA
:10B3D000C90FFF2A0FD0FF2C11D00120A24200D0AC
:10B3E00070BDB542FCD18B420DD0002AF8D12800A7
:10B3F000431E9841F4E70120002DF1D1EBE7012035
:10B40000002EEDD1E9E70020EAE7C0464302F0B59F
:10B4100042005D0AC30F4802440A4800120E000EA3
:10B42000C90FFF2A1FD0FF2822D0002A09D16E425F
:10B430006E4100280FD1002C0DD10020002D09D025
:10B4400005E0002801D1002C01D08B4213D05842D6
:10B4500001231843F0BD002EF7D04842414101209E
:10B4600049420843F6E7002DDDD002204042F1E7D3
:10B47000002CDAD0F9E78242E9DC04DBA542E6D809
:10B480000020A542E6D25842434101205B421843C6
:10B49000E0E7C0464302F0B542004C005E0AC30F2D
:10B4A0004802120E450A240EC90FFF2A17D0FF2C9E
:10B4B00019D0002A0BD170427041002C17D00028FF
:10B4C00007D048424141012049420843F0BD002CC9
:10B4D00013D08B4214D0584201231843F6E70220C0
:10B4E000002EF3D1E3E70220002DEFD1E1E7002D9C
:10B4F000E5D10020002EE9D0EDE7002DE9D1EAE703
:10B50000A242E8DC04DBAE42E5D80020AE42DDD248
:10B510005842434101205B421843D7E7F0B55746F4
:10B520004E4645464300E0B446028846760A1F0E62
:10B53000C40F002F47D0FF2F25D0002380259A4627
:10B540009946F600ED042E437F3F434642465D0296
:10B55000D20F5B006D0A1B0E904640D0FF2B39D0F6
:10B5600080220020ED00D20415437F3BFB184246A9
:10B570005746591C62408C4607430F2F5CD86F49D1
:10B58000BF00C9598F46002E45D108239A46063B75
:10B590009946DAE7424602282DD0032800D1C3E0BD
:10B5A000012800D0A2E0002500260240D4B2760295
:10B5B000ED05760A2E43E407264330001CBC904676
:10B5C0009946A246F0BD002E1AD104239A46033BA9
:10B5D0009946BAE72A00511E8A41901CC6E701200D
:10B5E000002DC3D0280001F0F5F8431F76309D40B0
:10B5F00043420020BAE70124FF2514400026D6E785
:10B60000300001F0E7F8431F9E40002376304742A8
:10B610009A46994699E70C239A46093B994694E73E
:10B6200080260024F603FF25C1E735004846B2E72F
:10B63000350022004846AEE72904090C0800370C03
:10B640003604360C2C0C7943704367437443060C64
:10B6500064183619B14203D980214902884647440B
:10B660000004000C310409188D01681E8541890E03
:10B670002943350CED19AD010D43290104D50123F2
:10B6800069081D4063460D4319007F31002925DDFF
:10B69000680704D00F202840042800D00435280172
:10B6A00003D5274980330D401900FE29A3DC01246E
:10B6B000AD016E0A1440CDB279E78020C003064286
:10B6C00007D0054205D128434602760A4446FF25A5
:10B6D0006DE706437602760AFF2568E70124611AC2
:10B6E0001B2905DD14400025002660E76346CBE7F3
:10B6F0002E002023CE40591A8D406B1E9D412E43B3
:10B70000730704D00F233340042B00D00436730199
:10B7100004D5012401251440002648E70124B60180
:10B72000760A1440002542E780260124F6032E43C2
:10B730007602760A1440FF2539E7C04624F9010055
:10B74000FFFFFFF7F8B54A024E0043024400240E03
:10B75000C50F9B09360EC90F9209FF2E00D183E059
:10B7600001204140A01BA9425CD0002800DC95E0EC
:10B77000002E1CD1002A00D081E05A0704D00F22ED
:10B780001A40042A00D004335A013BD50134FF2C5F
:10B7900000D191E001209B015B0AE4B205405B020D
:10B7A000E4055B0AED0723432B431800F8BDFF2C8B
:10B7B000E3D08021C9040A431B2800DD90E0160075
:10B7C0002021C640081A8240511E8A4132439B1AEA
:10B7D0005A0115D59B019E09300000F0FBFF05388A
:10B7E000864084426CDC041B330020200134E3409B
:10B7F000041BA640721E964100243343BDE70D0092
:10B800005A07BCD1DF0801231D40FF2C33D1002F84
:10B8100000D190E08022D20313003B435B025B0A1D
:10B82000FF24BCE700284FDD002E2ED0FF2CA4D033
:10B830008025ED042A431B2800DD97E01600202513
:10B84000C640281A8240501E824132439B185A013A
:10B85000D5D50134FF2C6DD001227B481A405B08FE
:10B86000034013430D0088E7002A00D07AE777E70A
:10B87000031EC5D100257B025B0AE4B28FE70138C5
:10B880000028A4D0FF2C97D177E7002A00D174E7D5
:10B8900001380028DAD0FF2CCDD16EE7002821D165
:10B8A000601CC0B2012858DD80279E1AFF04374073
:10B8B0002FD0D61A0D008FE701231D4000236EE71D
:10B8C000624B241A334058E7002851D1601CC6B29D
:10B8D000012E33DDFF282DD09B185B0804004CE7B8
:10B8E000012274E7002C1AD0FF2E1FD08024E4041C
:10B8F000404223431B2800DD96E01D002024C54064
:10B90000201A8340581E83412B43D31A34000D0064
:10B910005EE7002E00D05FE700250024ABE7002B98
:10B9200044D0C0430028F0D0FF2EE3D11300FF2401
:10B930000D0022E70D00FF24002330E7002C5DD12D
:10B94000002B7DD0002A00D117E79B185A0100D4A4
:10B9500056E73E4A040013400FE7002C1ED1002B8F
:10B960002FD1002A65D013000D0006E701226DE7F4
:10B97000002C1FD1002B59D0C04300280BD0FF2E24
:10B980004FD01B285EDC1D002024C540201A8340B8
:10B99000581E83412B439B18340058E7002B1CD1C1
:10B9A000002A49D013000D00FF24E6E613003400FE
:10B9B0000D00E2E6FF2E34D08024E404404223430D
:10B9C000DFE7002A00D1D8E68027981AFF04074055
:10B9D00000D14DE7D31A0D00CFE6FF24002A00D195
:10B9E000CBE68020DB08C003034204D0D208024229
:10B9F00001D113000D00DB00FF24BEE6002B10D0A8
:10BA0000FF24002A00D1B8E68020DB08C0030342EF
:10BA100003D0D208024200D11300DB000D00FF2446
:10BA2000ABE61300FF24A8E601236EE71300340001
:10BA3000A3E6002700251EE780270025FF03E9E68F
:10BA400013009AE60123A6E7FFFFFF7DFFFFFFFB40
:10BA50004302590A4300C20F1B0E00207E2B0EDD4D
:10BA60009D2B0DDC802000040143952B0BDC9620E0
:10BA7000C31AD9400B005842002A00D11800704761
:10BA8000034BD018FBE7963B99400B00F3E7C04609
:10BA9000FFFFFF7F70B5002830D0C317C5185D4089
:10BAA000C40F280000F096FE9E231B1A962B0DDC77
:10BAB0009622D21A95406A02520AD8B25202C005A2
:10BAC000520AE40702432243100070BD992B19DC8F
:10BAD0009922D21A9540124A2A40690704D00F21B0
:10BAE0000D40042D00D00432510103D50C4B1A40F7
:10BAF0009F231B1A9201520AD8B2DFE700240020CC
:10BB00000022DBE705222E00121AB921D6402A00B6
:10BB1000C91A8A40551EAA4135001543DBE7C046C5
:10BB2000FFFFFFFB70B5041E28D000F053FE9E23DC
:10BB30001B1A962B0ADC9622D21A94406202520AF1
:10BB4000D8B25202520AC005104370BD992B18DCBE
:10BB50009922D21A9440114A2240610704D00F2141
:10BB60000C40042C00D00432510103D50B4B1A4079
:10BB70009F231B1A9201520AD8B2E2E7002000224A
:10BB8000DFE705222500121AB921D5402200C91A83
:10BB90008A40541EA2412C001443DCE7FFFFFFFB48
:10BBA000F0B556464D4644465F46F0B41D000E03C0
:10BBB0004C00CB0F87B0070092468146360B640DD0
:10BBC00098466AD06D4B9C4235D08022430F1204B8
:10BBD0001343F6001E43C3009946694B00279C4659
:10BBE0000023644402932B0368001B0BED0F5146A6
:10BBF0009B46400D009500D178E0604B98426CD098
:10BC00005B46DA004B0F802109040B4313439B462C
:10BC10005346D9005A4B9C46002360444246201AA2
:10BC20006A40924601901F430F2F00D9B0E055485B
:10BC3000BF00C0598746374300D088E000239946AB
:10BC40000233082700260293CDE74346B346494610
:10BC50000093029B009A9246022B00D0BFE1002184
:10BC600053460122002689461A40444B00213603E0
:10BC70000C0D2405360B2643434C1B0526401E4362
:10BC80007600D207760816434846310007B03CBC20
:10BC900090469946A246AB46F0BD330003434FD0D1
:10BCA000002E00D1BCE1300000F094FD03000B3BFE
:10BCB0001C2B00DDADE11D220100D31A08393A002A
:10BCC0008F408E40DA40B9461643304B00279C46E1
:10BCD000002360444442029385E753465A46134387
:10BCE0002CD1002300219B46023397E70B4320D041
:10BCF0005B46002B00D19EE1584600F06BFD03002F
:10BD00000B3B1C2B00DD8FE102005946083A9140A5
:10BD10008B461D21CB1A5146D9400B0059460B4387
:10BD200051469B469140194B9C466044404200233B
:10BD300074E7002300219B4601336FE703236DE77F
:10BD40000023994601330427002602934BE703237F
:10BD50000C27029347E70122D51A382D00DCB0E109
:10BD600053461A4000210023002689467EE700231F
:10BD70008026994600223603004B77E7FF07000034
:10BD800001FCFFFF64F90100FFFF0F80F3030000D7
:10BD90005E4500D972E100D16DE1019B4D46013B4A
:10BDA00001930023340002935B461E020B0E1E43D8
:10BDB0000B020393330C994633041B0C49462000B5
:10BDC0000093FEF751FF009B3700434306004946AE
:10BDD00020009846FEF7CEFF2C0C09040C43A0452A
:10BDE00009D9E419731EA74200D95CE1A04500D827
:10BDF00059E1023EE4194346E41A49462000FEF7A1
:10BE000033FF0300009A80465343494620009B4677
:10BE1000FEF7B0FF2A040904120C0A4393450DD91A
:10BE20004346D219013B974200D93AE1934500D8E5
:10BE300037E102235B429C46D219E0445B46D21AAA
:10BE40004346360433439B460399180C0B0C1D00E4
:10BE5000059309045B46090C0C001B041B0C4443AE
:10BE6000049159436B4368431B190D0CEB189C421A
:10BE700003D980246402A44660441C0C09041B04FA
:10BE8000090C20185D18824200D2DEE000D1D7E014
:10BE9000161A029B9C465D1BAC459B415B42F61A01
:10BEA000B74200D106E149463000FEF7DDFE009BB7
:10BEB00004004343494630009846FEF75BFF2E0CD2
:10BEC00009040E43B04509D9F619631EB74200D9DB
:10BED000F3E0B04500D8F0E0023CF6194346F31A0F
:10BEE000494618000293FEF7BFFE009B060043433D
:10BEF000494602989846FEF73DFF2D0409042D0C93
:10BF00000D43A84509D9ED19731EAF4200D9D6E0FB
:10BF1000A84500D8D3E0023EED1924042100434691
:10BF20003143049E059A3000ED1A0B040C0C1B0CD7
:10BF300058436643534354439A19030C9B189E423B
:10BF400003D980225202944664441A0C00041B0454
:10BF5000000C14191B18A54250D34DD001231943CE
:10BF6000964A019B94466344002B00DCF3E64A07A3
:10BF700009D00F220A40042A05D00A1D8A428941AD
:10BF800049428B4411005A46D20108D55A468C4B7F
:10BF90001A4093468022D2009446019B6344894A0A
:10BFA000934200DD5BE65A46C90850070843560233
:10BFB000514601225B058146360B5B0D0A4055E672
:10BFC00080231B031E4211D05A461A420ED15E46F0
:10BFD0001E433603360B2A0089467B4B46E6032B6D
:10BFE00000D1E1E0012BBBD11A40BBE61E43360372
:10BFF000360B4246744B39E6002BB1D07D194A1EF0
:10C00000AF4252D91100A542A8D1039A9A42A5D1B4
:10C01000A6E703003E00283B9E400023994654E6D5
:10C0200000F0D8FB203041E603005246283B9A40FE
:10C030000021934677E6504600F0CCFB20305EE6C8
:10C04000029B0026AB4200D323E7039E0299B4462D
:10C0500061448846B045B6415B467642F619B2184F
:10C06000013B0291974213D290424FD800D18EE00B
:10C07000161A9B460DE7894500D28EE674084B469A
:10C08000F60735005B081D434B46DB0702938BE642
:10C090009742EDD10399029CA142E5D93E1A9B46F5
:10C0A000F7E69846CAE61E00A5E6AC423ED874D034
:10C0B000110053E70121494252E71C000EE71E0020
:10C0C0002BE71F2D3CDC20230A0058465B1B9840C1
:10C0D000EA4099400243481E81415E461143EE40CA
:10C0E0004B0709D00F230B40042B05D00B00191D63
:10C0F00099429B415B42F61833023CD553460122DC
:10C1000000211A40002601238946AFE502235B4245
:10C110009C46039CE344A446029B63449846A04586
:10C12000B6417642F6190293B218B1E603988A1E18
:10C1300041008142B6417642F619AD19039161E79B
:10C140001F225242D31A5A46DA401300202D29D01A
:10C1500040225846551BA8400143481E81410720F4
:10C160000B4318400026002809D00F2200261A4051
:10C170001900042ABBD10B0070077602360BDB08CE
:10C1800003439946012253461A4000236EE5029963
:10C190008D42BBD89B4600267BE603989842C5D3C8
:10C1A000110032E70020D7E780265B4636031E43A6
:10C1B0003603360B009A8946034B57E5FF03000010
:10C1C000FFFFFFFEFE070000FF070000F0B55F461F
:10C1D00056464D464446F0B40D0399464E002B0B8F
:10C1E00087B00700924680469B46760DCC0F002E06
:10C1F00069D06D4B9E4235D05B468022DD00120433
:10C20000430F13432B439B46C3009846674B0027BD
:10C210009C460023664401934A4615035000D20F02
:10C2200053462D0B400D914600D176E05E4A904278
:10C230006CD080225B0F120413435C4AED009446DD
:10C240001D4353460022DB00604449463618701CEB
:10C250006140029017430F2F00D9AFE05448BF0050
:10C26000C759BF465B461F4300D088E000239B466A
:10C270009846023308270193CEE74946022A6AD03E
:10C28000032A00D109E2012A00D0BBE111400022BB
:10C29000002300259046CCB200212D030A0D120583
:10C2A0002D0B1543434A1B0515401D436D00E40744
:10C2B0006D0825434046290007B03CBC904699468E
:10C2C000A246AB46F0BD034352D05B46002B00D1E3
:10C2D0008AE1584600F07EFA03000B3B1C2B00DD80
:10C2E0007BE11D22D31A3A0001005D46DA4008398D
:10C2F0008D4013008F402B439B46B8462E4B0027A2
:10C300009C46002360444642019385E752462A43F7
:10C310002CD100250023022297E752462A4321D040
:10C32000002D00D154E1280000F054FA03000B3B2B
:10C330001C2B00DD46E11D21CB1A51460200D940DD
:10C340005346083A954093400D431B4A9446604437
:10C350004042002279E7012400220C40124B0025C4
:10C36000904699E70025002301226EE703226CE73F
:10C3700000239B4698460133042701934CE703238F
:10C380000C27019348E700238025984600242D03BD
:10C39000054B81E75D464346019A6FE75D4643469C
:10C3A0002100019A6AE7C046FF07000001FCFFFF79
:10C3B000A4F90100FFFF0F80F30300004246120CB6
:10C3C00091461A0C9446424617044A461B041B0C1D
:10C3D0005A43604690464A464243100003926246E2
:10C3E0001C003F0C7A437C4342440192220C92464B
:10C3F000019A5244904506D98246802040028046E8
:10C40000C24450460390100C049048462404240C67
:10C410001204121905922A0C2D042D0C68432C00CD
:10C42000824648467C4350438146200C8046574311
:10C4300057444744BA4503D9802040028046C1444E
:10C44000380C3F04B84648442404240C0190049856
:10C45000A044404404905846000C814658460404C9
:10C46000200C8246070048465F434C4643436046E3
:10C4700060436446834650464443380C8446E4187F
:10C480006444A34203D980235B029C46E3444846AC
:10C490003F04230C3F0C2404E419574668436F43C0
:10C4A00084464D46504655434243380C81466244CB
:10C4B0004A445B44944503D9802040028446654445
:10C4C00003983F04834604983F0C8446E344C345E5
:10C4D0008041404282461004844601986744844665
:10C4E0006744A344BC46A345A4419946D44464424E
:10C4F0008742BF41D4458041E144A04699459B41D4
:10C500007F424042C8440743120CBA18A045A441D8
:10C510005F423B0064422343D71843467D19DB0D3D
:10C520006D021D435B465A02059B1A43531E9A41F6
:10C530005B46DB0D1A4343465B021343EA0107D512
:10C5400001225C0813402343EA07029E13436D084F
:10C55000574AB218002A4BDD580709D00F2018405F
:10C56000042805D0181D98429B415B42ED1803003A
:10C57000E80104D54F4A15408022D200B2184E4837
:10C58000824200DDE7E60124DB08680718436D02FC
:10C59000530580462D0B5B0D0C407DE680225946ED
:10C5A0001203114208D0154206D115432D039846B7
:10C5B0002D0B4C46414B6FE65D4615432D032D0B6D
:10C5C0003E4B69E603005546283B9D400023BCE6F0
:10C5D000504600F0FFF82030A8E60300283B9F40BB
:10C5E0000023BB46984689E600F0F4F8203073E655
:10C5F0000124A61A382E07DD00220C400023002556
:10C60000904649E6029EA3E71F2E20DC20222C0044
:10C610001800921BF040944093400443581E8341FD
:10C620001C43F540630709D00F232340042B05D09A
:10C6300023001C1D9C4292415242AD182B021FD573
:10C64000012400220C4001230025904624E61F20EF
:10C650002C004042821AD440202E1CD04022961B2F
:10C66000B5402B43581E8341072023431840002523
:10C67000002809D00F2200251A401C00042AD8D116
:10C68000230068076D022D0B0124DB080343984645
:10C690000C40002300E60025E3E78022012412037A
:10C6A00015432D0398462D0B0C40044BF4E5C04672
:10C6B000FF030000FFFFFFFEFE070000FF07000072
:10C6C0000B0330B5134D1A0B4B005B0DC90F002443
:10C6D000AB4211DD104CA34210DC802464032243E2
:10C6E0000E4CE41A1F2C0CDD0D48C31ADA4013005F
:10C6F0005C42002900D11C00200030BD094BCC1841
:10C70000FAE7E040084CA44663449A401300034310
:10C71000EEE7C046FE0300001D04000033040000E5
:10C7200013040000FFFFFF7FEDFBFFFF4200120E2E
:10C73000511C4302C9B270B55D0AC40F012915DD51
:10C74000E02189008C466D071B0B62440021280004
:10C750000D0D2D052B431C4D52052B405208134344
:10C760005B00E4075B082343190070BD002A15D164
:10C77000002D1FD0280000F02DF80A281DDC0B2307
:10C780002A001B1ADA4013000200153295400F4AA6
:10C790001B03121A52051B0B520DD7E7002D06D0B2
:10C7A00080221B0B120313436D07094ACEE7084A88
:10C7B0000023CBE700220023C8E703000B3B9D408A
:10C7C0002B000025E3E7C046FFFF0F808903000030
:10C7D000FF0700001C2101231B04984201D3000C19
:10C7E00010391B0A984201D3000A08391B099842E4
:10C7F00001D30009043902A2105C40187047C046FA
:10C800000403020201010101000000000000000019
:10C8100010B5002903D1FFF7DDFF203002E0081C2E
:10C82000FFF7D8FF10BDC04670B5054C05001300DA
:10C83000201E04D00A000220290000E000BF70BDC5
:10C8400000000000014B18687047C046BC20002063
:10C85000084B10B50400002B02D0002100E000BFFF
:10C86000054B1868836A002B00D09847200002F01F
:10C8700062F9C0460000000044FA010070B50500EE
:10C880000C1E01D1002049E0002804D08369002B50
:10C8900001D100F033F9224B9C4201D16C6808E0D1
:10C8A000204B9C4201D1AC6803E01F4B9C4200D15D
:10C8B000EC680C22A35E002BE4D02100280000F0DD
:10C8C0003FF8236B0600002B06D0216A280098470A
:10C8D000002801DA01267642A3891B0603D52169C7
:10C8E000280000F0FBFA616B002908D023004433D4
:10C8F000994202D0280000F0F1FA00236363A16C92
:10C90000002904D0280000F0E9FA0023A36402F013
:10C9100058FC0023A38102F055FC300070BDC046D6
:10C92000E4F9010004FA010024FA010010B5034BF8
:10C9300001001868FFF7A2FF10BDC046BC20002010
:10C94000F7B58A8905000C0013075AD44B68002BF1
:10C9500002DC0B6C002B19DDE76A002F16D00023D8
:10C960002E682B6080235B011A4001D0606D14E0BB
:10C970000123216A2800B847431C0ED12B68002BE5
:10C980000BD01D2B01D0162B02D12E6000205AE0B7
:10C990004022A3891343A38155E0A3895B0706D5F1
:10C9A0006368C01A636B002B01D0236CC01A00238C
:10C9B0000200216A2800E76AB847A389421C06D111
:10C9C00029681D293AD8204ACA40D20736D5002204
:10C9D000626022692260DB0405D5431C02D12B680A
:10C9E000002B00D16065616B2E600029CED0230042
:10C9F0004433994202D0280000F070FA00206063AE
:10CA000021E00F69002FC1D00B680F60DB1B019381
:10CA10000023920700D14B69A36003E0019B3F18FC
:10CA20001B1A0193019B002BB0DD019B3A00216A88
:10CA30002800A66AB0470028F0DCA3894022012024
:10CA40001343A3814042FEBD010040200B6970B535
:10CA500005000C00002B01D100201CE0002804D0B0
:10CA60008369002B01D100F049F80B4B9C4201D1A6
:10CA70006C6808E0094B9C4201D1AC6803E0084BAC
:10CA80009C4200D1EC680C22A35E002BE4D0210074
:10CA90002800FFF755FF70BDE4F9010004FA01001A
:10CAA00024FA010010B5024902F091FB10BDC04606
:10CAB0004DCA0100002310B5040003604360836089
:10CAC00081814366C2810361436183611900082249
:10CAD0005C3002F0C6FB054B24626362044BA36228
:10CAE000044BE362044B236310BDC0465DD70100D5
:10CAF00085D70100BDD70100C9F30100836913B5D3
:10CB00000400002B28D18364C3640365134B144ACB
:10CB10001B6882620193984201D101238361200046
:10CB200000F020F86060200000F01CF8A0602000F9
:10CB300000F018F80022E06004216068FFF7BAFFF7
:10CB400001220921A068FFF7B5FF02221221E06847
:10CB5000FFF7B0FF0123A36113BDC04644FA0100F3
:10CB6000A5CA0100F8B51D4B06001D68AB69002B76
:10CB700002D12800FFF7C2FF4835AC686B68013B63
:10CB800005D40C22A75E002F10D06834F7E72B687D
:10CB9000002B01D02D68F0E70421300002F0FBFAF1
:10CBA00028600028F6D10C23336016E00123200012
:10CBB0005B42E3810233A38167662760A7606760F9
:10CBC00027616761A7615C300822390002F049FBE8
:10CBD00020006763A763A764E764F8BD44FA010017
:10CBE000F7B50F00110001AA050002F016FC061EA1
:10CBF00001D1002427E02800FFF7B4FF041EF8D07D
:10CC0000DB23019A5B003900280000F087FC002834
:10CC100006DA002502F0D5FAA58102F0D3FAE8E79A
:10CC20000A4BE08163620A4BA681A362094B24622E
:10CC3000E362094B2363F30505D50223002221009B
:10CC4000280002F0C0FA2000FEBDC0465DD70100FA
:10CC500085D70100BDD70100C9F3010010B5034B12
:10CC60000A0001001868FFF7BBFF10BDBC200020C0
:10CC7000F7B505000C0001921E00002804D083695E
:10CC8000002B01D1FFF73AFF414B9C4201D16C6868
:10CC900008E0404B9C4201D1AC6803E03E4B9C4213
:10CCA00000D1EC688422A38952001340934203D13F
:10CCB00021002800FFF7CAFEE36A0093002B01D190
:10CCC0001D3331E0012E05D0022E31D01623002E67
:10CCD0002AD12DE021002800FFF7B8FE8023A28989
:10CCE0005B011A4001D0606D06E03300216A280024
:10CCF000009EB047431C18D0A3895A0707D5636824
:10CD0000C01A636B002B0AD0236CC01A07E01B0704
:10CD100005D52368002B02D022699B1AC018019BFD
:10CD200000261B18019303E02B6001277F422DE0B2
:10CD30002369002B03D12100280000F07DF8210099
:10CD40002800FFF783FE071EEFD13300019A216A06
:10CD50002800009EB047431CE7D0616B002908D033
:10CD600023004433994202D0280000F0B7F8002392
:10CD70006363002120002369A2892360074B61605F
:10CD80001340A3815C30082202F06BFA3800FEBD2C
:10CD9000E4F9010004FA010024FA0100DFF7FFFFC3
:10CDA0000E4B70B500251E000D4CE41AA410A542D0
:10CDB00004D0AB00F35898470135F8E702F0F4FBD4
:10CDC000084B00251E00084CE41AA410A54204D00C
:10CDD000AB00F35898470135F8E770BDF820002004
:10CDE000F8200020F82000201021002070B50E004F
:10CDF0001D000E23C95E90B01400002906DA00233E
:10CE00002B60B3891B060FD540230FE001AA00F069
:10CE100065FE0028F3DBF023029A1B021340054A4B
:10CE20009B185A4253412B608023DB000020236073
:10CE300010B070BD00E0FFFFF7B502268B8905003A
:10CE40000C00334210D101AB6A46FFF7CFFF0099C7
:10CE50000700280000F088F800280CD10C22A35EFF
:10CE60009A0523D43343A3812300473323602361EE
:10CE7000012363611AE080220D4BAB62A38920601D
:10CE80001343A381009B20616361019B002B0AD0A7
:10CE90000E23E15E280000F033FE002803D00122BB
:10CEA000A3891343A381A3891F43A781F7BDC0466C
:10CEB000A5CA010010B5034B0100186800F054F832
:10CEC00010BDC046BC20002010B5034B01001868FF
:10CED00000F004F810BDC046BC20002030B5002989
:10CEE0003ED004390B68002B00DAC9181D4A1368BC
:10CEF0001400002B02D14B60116031E08B420DD940
:10CF00000A688818834203D118685B6882180A602F
:10CF10004B60216024E08A4203D813005A68002A3B
:10CF2000F9D11D685C198C420BD109686918581831
:10CF30001960824214D110685268411819605A6011
:10CF40000EE08C4202D90C23036009E008680C183B
:10CF5000A24203D114685268201808604A605960E0
:10CF600030BDC04670240020032370B5CD1C9D4306
:10CF7000083506000C2D01D20C2505E0002D03DA42
:10CF80000C230020336040E0A942F9D81F4B1C68F5
:10CF90001A002100002913D00B685B1B0DD40B2B4A
:10CFA00002D90B60CC181EE08C4202D1636813607A
:10CFB0001AE04B6863600C0016E00C004968E9E772
:10CFC000134C2368002B03D1300000F0BBFA206023
:10CFD0002900300000F0B6FA431CD1D00323C41C52
:10CFE0009C43A0420AD12560200007220B30231D5C
:10CFF0009043C31A09D05A42E25006E0211A300089
:10D0000000F0A0FA431CEED1BAE770BD70240020F6
:10D010006C240020F0B58BB006920A0043320793CF
:10D02000059004920A7E0C00109B6E2A00D1ABE0A2
:10D0300011D8632A22D009D8002A00D1B5E0582A95
:10D0400000D0C5E045310A70814A4FE0642A1DD006
:10D05000692A1BD0BCE0732A00D1AAE009D86F2A44
:10D0600029D0702A00D0B3E0202209680A43226048
:10D0700037E0752A1FD0782A33D0A9E00E001A684D
:10D080004236111D196013683370A4E021681A68D4
:10D09000080606D4490604D5111D19600023D55E83
:10D0A00002E0111D19601568002D3BDA2D23049A4A
:10D0B0006D42137036E021681A68080606D44906E6
:10D0C00004D51568111D1960ADB202E0111D19607B
:10D0D00015685F4B227E039308276F2A1DD00A270D
:10D0E0001BE022007821453211705A4A19680392D8
:10D0F000081D226818600D68100602D4500600D57D
:10D10000ADB2D30702D520231A4322601027002D89
:10D1100003D1202322689A43226023000022433354
:10D120001A7002E00A274A4B03936368A360002B3E
:10D1300009DB0422216891432160002D05D1049E62
:10D14000002B11D07BE0002D79D0049E28003900FF
:10D15000FDF710FE039B013E5B5C28003370390035
:10D16000FDF782FD051EF1D1082F09D12368DB07E9
:10D1700006D563682269934202DC3023013E337096
:10D18000049B9B1B23612BE009681A68080607D4DF
:10D19000490605D5111D19601368A28A1A8004E09A
:10D1A000111D1960136862691A600023049E2361CF
:10D1B00016E01A68111D19601668002162683000B7
:10D1C00002F026F8002801D0801B6060636803E04D
:10D1D000260042363270012323610023049A137023
:10D1E000079B09AA00932100069B059802F041F8CD
:10D1F000431C02D10120404227E0236932000699F6
:10D200000598079DA847431CF4D0236800259B0779
:10D210000FD4099BE068984217DA180015E0220045
:10D220000123193206990598079EB047431CE1D0A7
:10D230000135E368099A9B1A9D42F0DBE9E7260075
:10D24000039B42361B7833708EE70BB0F0BDC046AF
:10D25000E4FC0100F5FC0100F7B515008A680190B7
:10D260000C00002A06D18A69511E8A4101215242CE
:10D270000A43A2602268D20603D41A68111D1960FD
:10D2800017680026A06900281ED1102223680136E5
:10D29000134203D12B681B783B7001372A686B68F7
:10D2A00001322A60A268013B013A6B60A260002A49
:10D2B0001ED0002BE6DCC0235B00E3582900019858
:10D2C00098470028DED013E0012806D12B68626958
:10D2D0001B78D35C002BD8D11AE0022808D12B6828
:10D2E0000D4A1B781268D31808225B781342CCD001
:10D2F00010232268134006D1E2680132E260A2697D
:10D30000002A00D03B70236900209E19266101E0AD
:10D31000002EEDD1FEBDC046C0200020F0B50C00AF
:10D320008DB00293774B0590160009AA23CB23C238
:10D33000754B0693A369032B01D0744B069300220F
:10D34000A36804925D32591EFF32914205D95E3BBB
:10D35000FF3B04935E23FF33A36023001C33019340
:10D36000D023002722681B0113432360019B0393F2
:10D37000336809A81978BB000222185801F048FF49
:10D3800000283BD0012F0DD16368002B06D1083354
:10D3900022686360F933FF33134323605C4B2268D8
:10D3A00013400EE0022F0DD1C02180222368C90056
:10D3B00019409200914224D1F13AFF3A6260F03272
:10D3C00013432360A3685A1EA260002B16D0039B50
:10D3D0005D1C33685A1C32601B78039A03951370E6
:10D3E0007368013B7360002B08DCC0235B00E358CB
:10D3F0003100059807939847002847D10137032F3C
:10D40000B6D16368002B01D10A3363601021002775
:10D4100063686069C91A3F4BC91801F098FF039D02
:10D42000A368002B33D0326860691178405C002813
:10D430002DD030290DD1802021680001014208D073
:10D44000049A0137002A0BD0013A01330492A360F9
:10D4500006E02168304B0B40236013782B700135B8
:10D460007368013B7360002B03DD33680133336065
:10D4700008E0C0235B00E358310005980393984708
:10D48000002804D1A368013BA360C9E700272368F3
:10D49000DB050ED5019B9D4207D9BE23013D5B00F4
:10D4A0002978E358320005989847019B01209D4256
:10D4B00025D0102223681A401AD12A706368019976
:10D4C0000598069EB047029B22681B68910607D408
:10D4D000D10705D502991A1D0A601B68188004E05F
:10D4E00002991A1D0A601B681860E3680133E36043
:10D4F0000020019BED1A2369ED195D1925610DB01E
:10D50000F0BDC04648FA0100E9D701000DD901007D
:10D51000FFFAFFFF06FD0100FFF6FFFF70B50500F3
:10D52000080011000022064C22601A00FCF780FD62
:10D53000431C03D12368002B00D02B6070BDC04674
:10D540008C240020002370B5064C050008002360E1
:10D55000FCF766FE431C03D12368002B00D02B6030
:10D5600070BDC0468C240020F0B51D00514B85B025
:10D570001E6804000F000092002E05D0B369002B36
:10D5800002D13000FFF7BAFA4B4B9C4201D17468CC
:10D5900008E04A4B9C4201D1B46803E0484B9C42EE
:10D5A00000D1F468009B022B05D0012B00D97CE050
:10D5B000002D00DA79E021003000FFF747FA616BB7
:10D5C000002908D023004433994202D03000FFF7ED
:10D5D00085FC002363630023A3616360A3891B06AA
:10D5E00003D521693000FFF779FCA289354B134040
:10D5F000A381009B022B21D003AB02AA21003000A3
:10D60000FFF7F4FBA3891843A081002D01D1029DEF
:10D6100001E0002F25D12800FFF74CFC0195071EE3
:10D620001AD1029B0193AB4202D10120404206E095
:10D630000198FFF73FFC071E0ED1F6E700200222FB
:10D64000A3891343A3810023A360230047332360EE
:10D650002361012363612AE08022A389019D134392
:10D66000A381B369002B02D13000FFF747FA009B7A
:10D67000012B03D1A389009A1A43A2810823A2890E
:10D680002760134027616561181E0CD001231A40E2
:10D690000023101E984204D06D42A360A5611800BB
:10D6A00005E0A56003E0A36001E00120404205B071
:10D6B000F0BDC046BC200020E4F9010004FA0100DE
:10D6C00024FA01005CF3FFFF0EB410B59DB002A96F
:10D6D000029008610B488224886048610120404222
:10D6E0001FABC881084804CBA400006801938C815B
:10D6F00000F08EFA0023029A13701DB010BC08BC13
:10D7000003B01847FFFFFF7FBC2000200EB4812329
:10D7100070B59DB002AC21AD9B0040CDA3810290BD
:10D72000069001F061FE0B4B606063620023606154
:10D7300009486363A364013BE38132002B002100AD
:10D740000068019500F062FB1DB070BC08BC03B01E
:10D750001847C046C5F30100BC20002070B50C007E
:10D760000E25495F00F0D0FC002803DB636D1B1819
:10D77000636503E0A289024B1340A38170BDC046DC
:10D78000FFEFFFFFF8B51F008B8905000C001600A6
:10D79000DB0505D50E23C95E0022022300F0C2F985
:10D7A000A289054B28001340A38132000E23E15EBD
:10D7B0003B0000F06DF9F8BDFFEFFFFF70B50C0006
:10D7C0000E25495F00F0AEF9A389421C03D1054A3A
:10D7D0001340A38104E0802252011343A3816065BA
:10D7E00070BDC046FFEFFFFFF0B51E00454B87B090
:10D7F0001B680192029308220B00059003911C788C
:10D8000002995D1C09194878104001D02B00F6E7F9
:10D810002D2C04D19D1C5C780123009304E0009022
:10D820002B2C01D15C789D1C002E02D0102E0AD129
:10D8300062E0302C5ED120222B789343582B54D1B8
:10D8400010266C780235009F31007B1E9F412E4BC5
:10D85000FF183800FDF78EFA380004913100FDF70B
:10D8600003FA00230322070094461800029A1219B3
:10D8700051780422114201D0303C07E06246114049
:10D8800017D03722012900D02032A41AA64210DD79
:10D890005A1C0BD0B84207D802D1049B9C4203DC2F
:10D8A00070430123201801E001235B422C780135ED
:10D8B000DCE75A1C0BD10098059A431E9841124B85
:10D8C000C01822231360019B002B0AD117E0009A95
:10D8D000002A00D04042019A002A10D0039A002B5F
:10D8E00000D06A1E019B1A6009E03024002EAAD1E4
:10D8F0000826A8E70A26A6E7302C9CD0A3E707B0A5
:10D90000F0BDC046C0200020FFFFFF7FF0B51E0025
:10D910003F4B87B01B680491029317000B0008214E
:10D9200005901C78029A5D1C121952780A4001D0A9
:10D930002B00F6E72D2C04D19D1C5C78012301936C
:10D9400004E001922B2C01D15C789D1C002E02D0AA
:10D95000102E0AD157E0302C53D120222B7893433C
:10D96000582B49D110266C780235012031004042F5
:10D97000FDF77AF90390012031004042FDF7FAF9F2
:10D9800000238C461800029A121951780422114281
:10D9900001D0303C07E00322114017D03432012976
:10D9A00000D02032A41AA64210DD002B09DB039B15
:10D9B000984206D801D1644503DC70430123201846
:10D9C00001E001235B422C780135DCE7002B07DA0C
:10D9D00022230120059A40421360002F09D115E04F
:10D9E000019A002A00D04042002F0FD0049A002B49
:10D9F00000D06A1E3A6009E03024002EB5D1082616
:10DA0000B3E70A26B1E7302CA7D0AEE707B0F0BDE8
:10DA1000C02000200B00F7B54D6B44330C009D4235
:10DA20001BD18026F6003100FFF79EFA002802D1B4
:10DA30000120404225E023006063A66346331A7844
:10DA4000104BC254230045331A780F4BC2542A7826
:10DA50000E4BC254C018206012E08E6B2900730078
:10DA60001A00019301F013FD051EE1D08719010092
:10DA70003200380001F0D7FB019B27606563A36388
:10DA80000020FEBDFF030000FE030000FD030000B8
:10DA900070B50500080011000022064C22601A0033
:10DAA000FCF748FB431C03D12368002B00D02B60FC
:10DAB00070BDC0468C240020002370B5064C0500C4
:10DAC00008002360FCF720FB431C03D12368002BD4
:10DAD00000D02B6070BDC0468C240020002370B5A0
